:020000041000EA
:1000000000B5324B212058609868022188439860DF
:10001000D860186158612E4B002199600221596106
:100020000121F02299502B49196001219960352056
:1000300000F044F80222904214D00621196600F024
:1000400034F8196E01211966002018661A6600F04E
:100050002CF8196E196E196E052000F02FF8012189
:100060000842F9D1002199601B49196000215960AB
:100070001A491B48016001219960EB211966A021F2
:10008000196600F012F800219960164914480160C1
:100090000121996001BC002800D000471248134993
:1000A000086003C880F30888084703B5996A0420EC
:1000B0000142FBD001200142F8D103BD02B5186610
:1000C0001866FFF7F2FF186E186E02BD00000240BE
:1000D000000000180000070000035F00212200005C
:1000E000F4000018222000A00001001008ED00E03C
:1000F00000000000000000000000000074B24E7A12
:1001000000200420F7010010CB010010CD010010E9
:10011000C9010010C9010010C9010010C901001077
:10012000C9010010C9010010C9010010FD0500102F
:10013000C9010010C9010010410600102D07001070
:10014000C1010010C1010010C1010010C101001067
:10015000C1010010C1010010C1010010C101001057
:10016000C1010010C1010010C1010010C101001047
:10017000C1010010C1010010C1010010C101001037
:10018000C1010010C1010010C1010010C101001027
:10019000C1010010C1010010C1010010C101001017
:1001A000C1010010C1010010C1010010C101001007
:1001B000C1010010C1010010C1010010C1010010F7
:1001C000EFF30580103800BE00BE00BE00BE00BECA
:1001D00000BE00BEF2EB88716087001080870010BF
:1001E0003802001090A31AE71E481F49086006C88D
:1001F00081F3088810471D480068002801D019487D
:10020000F3E70DA40ECC002902D000F012F8F9E7B4
:100210001749184A002000E001C19142FCD116495B
:100220008847164988471649884700BEFDE701C937
:1002300001C29A42FBD3704780870010C0000020A3
:1002400070100020309700100000042000000420EF
:10025000309700100010042000100420000000005F
:10026000704700000000000008ED00E0000000D032
:1002700070100020C4620020111E001059030010ED
:10028000091E0010F8B5C0460448054B10B583425E
:1002900003D0044B002B00D0984710BD70100020F5
:1002A000701000200000000006480749091A8B1052
:1002B000C90FC91810B5491003D0044B002B00D04A
:1002C000984710BD70100020701000200000000042
:1002D00010B5074C2378002B09D1FFF7D5FF054B4C
:1002E000002B02D0044800E000BF0123237010BDA2
:1002F0003814002000000000A4820010054B10B547
:10030000002B03D00449054800E000BFFFF7CCFFF5
:1003100010BDC046000000003C140020A482001064
:10032000F8B5D02580240A4F0A4E2D06A4043800C3
:100330006C6101F0BDFEFA20400005F055F9300077
:10034000AC6101F0B5FEFA20400005F04DF9EEE792
:10035000A4820010B082001000B583B001F058FEF6
:10036000192000F057FAD02380221B0692045A620B
:100370000023802201930233064900935200002398
:10038000054804F0D7FF054801F092FE05F0C8FAD1
:10039000FEE7C046B882001021030010C0820010A2
:1003A000F8B5CE464746431E80B50A3314D8072316
:1003B00004001A000834224023425AD01300093B9B
:1003C000A34209D31030841A05F03AFB4D4A2700A6
:1003D000116800292AD111E005F032FB494A13685F
:1003E000002B09D005F034FB002600F003F93000A3
:1003F000C0BCB946B046F8BD0027002407254249D5
:100400000B0008000D4230D10025404E7560306071
:100410003F4EB44607266144B14311603D4ACB1AB2
:1004200013604D603C4A0D600AC01360002FD9DB99
:10043000002CD7D0384F3B689C46A342D2D33348D8
:10044000314D0368AB420ED3344AAE18B3420AD8DA
:1004500080465868A0421BD21A68002A18D0AA42C7
:1004600011D272B6FEE772B6FEE7CB1DAB431800A1
:10047000CAE705F0E5FA234A270011680029BDD034
:10048000002CD7DAAEE7B242EBD898461300E0E78B
:100490008B42A7D01E000836AE420BD31F4A9146AE
:1004A0004D44AE4206D8424619681160A04203D2BC
:1004B00072B6FEE772B6FEE7051B102D09D91A19B0
:1004C000500701D072B6FEE711604146200055602A
:1004D0000A6062460F49121A0C683A60A24200D2C2
:1004E0000A608022120602435A6000221A600C4AF7
:1004F00013680133136005F0ABFA730700D176E798
:1005000072B6FEE76822002084220020B06200203C
:10051000F83F0000A4620020A0620020FF3F00001E
:10052000A862002070B500283AD02C4D083804008D
:100530000600A84208D32A4BEB18984204D8436817
:10054000002B2EDB72B6FEE772B6FEE75B005B089F
:10055000436005F075FA234A6168136822485B1806
:10056000136003001A001B689C42FBD8824206D02D
:10057000AA421BD31A4884466544AA4216D850683A
:100580001518AC421ED06018834211D02360B242CD
:1005900000D01660154A13680133136005F058FA4D
:1005A00070BD0268002AD1D072B6FEE772B6FEE7CF
:1005B0000F4800688342E9D058681B684118716091
:1005C0003360E4E70918501851608342E2D10848CB
:1005D000160000688342EFD11360DBE7842200201D
:1005E000FF3F0000A0620020B0620020AC6200204B
:1005F0006822002072B6FEE772B6FEE77047C0467A
:100600000B4A13681868203080F30988022080F3B1
:100610001488BFF36F8F3FBCAE4608BC04BC62B603
:100620001847C046C046C046C046C046C046C04641
:10063000581400200000000000000000000000002E
:10064000EFF30980164B1A6820381060F0C044465A
:100650004D4656465F46F0C00D221207146E556E89
:10066000566F176F3038F0C008B572B605F04AFA09
:1006700062B60CBC116808681030F0C8A046A946E4
:10068000B246BB4680F309880D2212073038F0C805
:100690001466556656671767F0C81847C046C046C7
:1006A0005814002010B500F0F3F8C04610B58024AF
:1006B000031F64041C60043B19600349043B196078
:1006C000143B40381A6010BDA506001072B6FEE754
:1006D0008022044B52051A60BFF34F8FBFF36F8F18
:1006E0007047C04604ED00E072B6044A1368013357
:1006F0001360BFF34F8FBFF36F8F70479862002076
:10070000054A1368002B01D172B6FEE7013B136066
:10071000002B00D162B6704798620020EFF3108082
:1007200072B6704780F310887047C04610B5FFF767
:10073000F5FF040005F0D6F9002803D08022034B12
:1007400052051A602000FFF7EDFF10BD04ED00E038
:10075000002310B5084A094C05202360136000F0FF
:10076000F9FFFA21890001F029FA054B01381860D8
:100770000723236010BDC04618E000E010E000E051
:1007800014E000E0FF22134B1204196810B50A436D
:100790001A60FF22196812060A431A600E490E20D9
:1007A00004F09EF80D490F2004F09AF80C490B2034
:1007B00004F096F8FFF7CCFF00220A4B1A60D02213
:1007C0001206094B12681A70FFF71AFF05F09AF922
:1007D00000F05EF820ED00E0410600102D0700104B
:1007E000FD05001098620020A00F002010B500F059
:1007F000C5F8054A054B944660448000186004F033
:10080000E3F8034B186010BD400000346422002060
:100810009C6200200123D0228340120693629361E0
:10082000094A83009A1811684022514080320A40D8
:100830000649C0008C4663441A60054B9C4605235C
:10084000604443607047C04604C0014004D001408A
:10085000004001408023DB051868000F7047C04648
:100860000FB400B5084883B001F022FC049B002BB4
:1008700007D005A91800019101F0ACFA034801F076
:1008800017FC012001F0BEFAD4820010E4820010AF
:1008900010B50148FFF7E4FFE882001070B5EFF3F0
:1008A000108C72B60D4D2B68002BFCD0BFF35F8F00
:1008B0000724CB08C618C05C01230C40A3401C00D1
:1008C0000440034207D118433070BFF35F8F2C60A0
:1008D0008CF3108870BD1000FFF7C2FF2C0100D010
:1008E000F8B54746CE46884680B5EFF3108C72B611
:1008F000214D2C68002CFCD0BFF35F8F9A422CD87E
:10090000D4080727055D061901241740BC402C4276
:100910001FD007210127894609E0D408055D061983
:100920004C4639001440A1400C00294211D001323C
:100930009342F2D201204042BFF35F8F00220E4B60
:100940001A608CF3108800280FDBC0BCB946B04693
:10095000F8BD254310003570EEE7BFF35F8F00232D
:100960002B608CF31088012040424346002BECD0D2
:100970000898FFF775FFC0462C0100D0044A107894
:10098000431CDBB2172B00D9102313707047C046ED
:10099000A10F002010B5064B064C82B00100009359
:1009A00018221F232000FFF79BFF02B010BDC04696
:1009B000F8820010DC1D00200021044B044ABFF324
:1009C0005F8F02C39342FAD17047C046000100D046
:1009D000800100D0054B064A1360064A136053603D
:1009E0009360D3601361536193617047808080800E
:1009F00000E400E004E400E01F2318401E3B8340B5
:100A0000002905D0C021044A4900535013607047A3
:100A1000802201498B50FAE700E100E00122824088
:100A2000034B1B6813405A1E9341D8B27047C0460F
:100A300000E100E001238340014A13607047C04693
:100A400000E200E0064B10309B688000C358054A66
:100A500000209B1A2F229A424041C0B27047C046E4
:100A600000ED00E0A40F002070B50D00EFF310863C
:100A700072B60F4A1368002BFCD0BFF35F8F0D4B8B
:100A800010309B6884001B590B4A934203D09D424F
:100A900001D000F069FF074B9B681D51BFF35F8FCA
:100AA000BFF35F8F0022024B1A6086F3108870BD7F
:100AB000240100D000ED00E0C1010010F0B5574660
:100AC0004E46DE464546E0B585B00600009117006B
:100AD000EFF3108B72B66A4A1368002BFCD0BFF399
:100AE0005F8F0025674B5D579A46002D00DAA9E01D
:100AF0006B00654C01935B199B009846A146C1446D
:100B00004B4652469B7910361370604BB6009B687B
:100B100099590B1B2F2B33D95D4B994200D0ACE078
:100B2000019B42469C465B4B6544AD0063535A4B68
:100B30000232A218043B9B1A1B05584A5B0D65192B
:100B400013436B80564B0121AB80FF23AB71009B9D
:100B5000EF71AB604B460B4319004C4B9B689951AE
:100B6000BFF35F8FBFF35F8F0022454B1A608BF39B
:100B7000108805B0F0BCBB46B246A946A046F0BD01
:100B800001200A008243D3798C46BB4231D84546C6
:100B9000130044491B1B5B415943090D3D4B6353F3
:100BA0003D4B02356519043B5B1B1B053B4D5B0D43
:100BB0002B43AA464D466B800425AC465546E0447F
:100BC000131F44441B1B1B055B0D1D434B469971B2
:100BD00000999D8099604946DF71334B0143136052
:100BE000BBE75800C01880002018C179B9422FD93E
:100BF00002000623D356002BF3DA02932B4B6146F7
:100C00000393131D9A4604235B429C46E1445046DD
:100C10004B461B1A1B055B0D9C46204B9571984655
:100C20006346404603439380019B5A199200039BFD
:100C3000A418A380029B1C4AA371009B2260E77149
:100C4000A3608AE700F090FE002553465D574FE70A
:100C5000908802934005131D9A46031561469C46F1
:100C60004046D444634604302018181AE023000597
:100C7000400D1B0218430390C5E700F075FE4FE7D7
:100C8000240100D0BC620020A40F002000ED00E091
:100C9000C101001000A1FFFFD40F002000E0FFFF02
:100CA00001BDFFFFAAAA00000148804701BD000066
:100CB00070B501240443EFF30581EFF3108C72B695
:100CC000214A1368002BFCD0BFF35F8F1F4B050038
:100CD0001F4AED1A6D416A43120D1E4D8900AE6820
:100CE00052B27658A6421CD00621595691421CD0C9
:100CF00012215956914222D01E215956914220D09C
:100D00002A2159560324914210D0134B19781A7096
:100D10008171BFF35F8F00220B4B1A608CF3108838
:100D200070BDAB680D4C5C50EFE700246100091901
:100D300089005B18FF21997109499980E5E7012431
:100D4000F4E70224F2E7C046240100D0A40F0020FB
:100D5000AAAA000000ED00E0BC620020C101001062
:100D600001BDFFFF10B5084B084C82B00100009395
:100D7000002205232000FFF7B3FD002801DB1F231D
:100D8000181A02B010BDC04614830010C0620020C3
:100D9000024B9C466144890001607047400000346A
:100DA00070B5114C114DAC420FD2FF262368002BB9
:100DB0000CD0FFF7E3FD01002000FFF7E9FFA6805C
:100DC000BFF35F8F0834AC42F0D370BDFFF7D6FDA0
:100DD00001002000FFF7DCFF2671BFF35F8F0834AE
:100DE000AC42E3D3F1E7C046681000207010002049
:100DF00010B50400FFF7C2FD01002000FFF7C8FF97
:100E0000FF232371BFF35F8F10BDC04610B50400F0
:100E10000120FFF7BFFD034BC3189B002360BFF306
:100E20005F8F10BD40000034034B9C466144890035
:100E30000160BFF35F8F7047400000340A4B1968B0
:100E4000EFF3108072B60A68002AFCD0BFF35F8F00
:100E50001B68BFF35F8F00221A6080F3108840BFC9
:100E6000002000217047C04678220020F0B5DE4601
:100E700057464E464546E0B583B0EFF3058203235F
:100E80001340B54A990052580091904601229A4069
:100E90009346B24B1A60B24B01935B46B148436331
:100EA000434608229B5E9946002B3ADA43469B88CC
:100EB0001BB2002B00DB9DE043469B79002B00D04A
:100EC000E1E0434608241C5F002C20DB43465A69BE
:100ED00063001B19DB00D3189D68DC686B1C00D114
:100EE00003E1A048009984466144826A0B69AE1A06
:100EF0009B1A9E4213D35A46036A1A420FD099484E
:100F000000F028FB8C4202DCC7D18542C5D940BF26
:100F100003B0F0BCBB46B246A946A046F0BD0D6189
:100F2000EDE7424652695B0092464B44DB009A442F
:100F300053469E68DF6800F00DFB8F42B6DC00D19F
:100F4000F8E0002F00DAD9E05246534654691B6995
:100F5000019A934200D1CCE0414652460820085EF7
:100F60005288000421001043984704000D0023001C
:100F70002B4300D1C2E0002D00DBDFE03000390060
:100F8000001BA94153469860D96000229A5E002A4E
:100F900000DA8BE743465D6953009C18E4002C1986
:100FA000A768E4688C4200DD80E702D1874200D95F
:100FB0007CE74646328108360DE08C4200D1C6E01F
:100FC0001E000023F25E002A0ADB53009C18E40096
:100FD0002C19A768E4689B18DB00EB188C42ECDD49
:100FE00053461A804B46338043469B881BB2002BE6
:100FF00000DA61E743461A69EFF3108172B61368AD
:10100000002BFCD0BFF35F8F43469E8801234246EE
:101010005B42938036B21369BFF35F8F00221A6080
:1010200081F31088002E00DA46E743465D690833F5
:1010300042469C467700BF19FF00EF19BB68604627
:1010400098460823D15E9246FC68002907DA0EE034
:10105000A24246D018000023C15E002906DB4B00E7
:101060005B18DB00EB18DA68A242F1DD524606801D
:101070000023FE5E3980002EDCDA904643469B79E1
:10108000002B00D11DE7002342469371434646469C
:101090000821595E08364B1C00D138E7474689467F
:1010A000556902E006004B1C18D04B005B18DB00B2
:1010B000E8180A008C46E95E43881BB2002BF1DA7F
:1010C00001235B42DC178360C4604A4503D0318052
:1010D0003B8903803A81E1464B1CE6D1B8464C4639
:1010E000F2E69A684245B5D9C0E7631C00D0F8E63D
:1010F00005E7200023699847002825D1534642463A
:101100001B8813811269EFF3108372B611680029EE
:10111000FCD0BFF35F8F4246514652880A80424658
:10112000494651801269BFF35F8F0021116083F33C
:101130001088BBE6864200D803E7B7E6094800F00E
:1011400009FA001969411DE7656824680FE78742BD
:1011500000D835E744E7C046542200203C700540E3
:101160006D0E00100040054070B52E4C2569002D15
:1011700004D00A212C48FFF70BFE70BD2B4E032133
:10118000300000F0DDF9E660FFF7F8FB284B0322A2
:101190009C46D02322701B061B6801216370254BDF
:1011A0006044A3600F238000206102206380636994
:1011B0004942A18019800231198647311D83585256
:1011C00018315A5275325C3999521832013199529C
:1011D00018320131995218320131995208351832BA
:1011E0009D520231183299521832013199521832F7
:1011F0000131995218320131995218320131995204
:101200001832013199520C4B0C49DC6001303562C7
:10121000FFF72AFC01210320FFF7EEFB084B1D60BE
:10122000A7E7C046EC0F00207822002000400540D0
:1012300040000034FFFF1000542200206D0E00100B
:101240003860054000487047EC0F0020F8B51F00DB
:1012500008AB1B7804001600002B08D100F082F9BF
:1012600032003B00121A8B41002B00DA53E0226956
:10127000EFF3108072B61368002BFCD0BFF35F8FC2
:101280000223E15E63694A005218D2009B180029CC
:1012900037DB1A8862802269BFF35F8F00251560F3
:1012A00080F31088069A9E60DF601A61079A5A617F
:1012B0005A8801325204520C101C002A1FD082B2EC
:1012C0005880080410432669EFF3108772B632681D
:1012D000002AFCD0BFF35F8FA2881A80A180236907
:1012E000BFF35F8F00221A6087F310880B492378C1
:1012F0008C4601329A40E36863441A60F8BD0120CD
:10130000DDE72369BFF35F8F00221A6080F3108846
:1013100001204042F2E70020F0E7C0463C200000F8
:1013200070B501000469EFF3108C72B620680028D4
:10133000FCD0BFF35F8F02200D5E4C69680040193E
:10134000C0002418002D37DB208848800869BFF3CF
:101350005F8F002606608CF31088E3606388049832
:10136000013320615B0405985B0CA26060611A1C6C
:10137000002B1FD093B22804628018430A69EFF350
:10138000108C72B61368002BFCD0BFF35F8F8B8874
:1013900023808D800B69BFF35F8F00221A608CF36E
:1013A00010880B7801329A40CB6808498C46634418
:1013B0001A6070BD0122DDE70B69BFF35F8F002269
:1013C0001A608CF3108801204042F2E73C200000B4
:1013D00010B543890A1493421ADD53009B184269E1
:1013E000DB00D3180469EFF3108C72B62268002A70
:1013F000FCD0BFF35F8F5A88090494B2090C8A426B
:1014000008D00369BFF35F8F00221A608CF3108845
:10141000002010BD8022120214435C800123026967
:101420008371BFF35F8F002111608CF31088044932
:1014300002788C469340C268012062441360E8E75A
:101440003C20000040787047F0B5D6464F464646EF
:10145000C0B504000D0082B0EFF305878946002F68
:101460000ED0344900204B6AAB4203D38A6A013064
:10147000A24226D302B0E0BCBA46B146A846F0BDAF
:101480002D4B9846DB689A46434650461E7800F03E
:1014900061F80B00514602000436B6007158200076
:1014A0008E1A2900801A99418F4211DC0ED020BF7C
:1014B000204A0020536A4B45DCD3926A0130A24295
:1014C000D8D25B1B5A1E9341D8B2D3E78642EED9DD
:1014D00000F048F822002B00121A8B41002B1ADB77
:1014E00000230193154B2200009340462B00FFF789
:1014F00017FF011E0FDD0F4B5A6A4A4517D39B6A2F
:10150000A34212D34046FFF763FF0A4A0020536A02
:101510004B45AFD3D1E7074A0020536A4B45A9D3C7
:10152000926A0120A242A5D2CBE74A45EAD120BF68
:10153000E8E7C04600400540EC0F00203D0E0010DB
:1015400010B5024A0248FFF7A9F910BD3083001018
:10155000E01D00200300416A0A00986A596A8A4225
:10156000FAD17047034B596A0A00986A596A914246
:10157000FAD1704700400540F8B5DE464E46574662
:101580004546E0B58B4605000A991800160000F0A4
:1015900015FB0A9B6C001F02324B64199C46A40089
:1015A0006444636881469F4200D967602B1FDBB2A9
:1015B0009846012B30D9C02380229B01E3181201E9
:1015C0001A60294BAD0059599A4600291BD1730165
:1015D000E026226853401E40802342465B01E31808
:1015E0001E60012A30D9802380229B01E31812015A
:1015F0001A6053464A4667605A51F0BCBB46B24631
:10160000A946A046F8BD586900F0D8FA0130430059
:101610001B18033BFDD2DAE75B46012BCBD1C0237D
:1016200003229B01E3181A60023AA3681A42FCD015
:101630007301E0262268AD0053401E4080230A4A11
:101640005B019246E3181E605A462168514003220E
:101650000A401A6001225B469A40A3681A42FCD0F5
:10166000C1E7C04600800040E41D0020F0B54646BA
:101670004F46D646C0B51F00344B44009C46241844
:10168000A4006444636888461600FF2B02D88023B8
:101690005B006360031FDBB29A46012B30D9C02385
:1016A00080229B01E31812011A60294B85005959C9
:1016B000994600291BD17301E026226853401E4041
:1016C000802352465B01E3181E60012A30D9802333
:1016D00080229B01E31812011A6080235B00636083
:1016E0004B465F51E0BCBA46B146A846F0BD5869CA
:1016F00000F064FA013043001B18033BFDD2DAE727
:101700004346012BCBD1C02303229B01E3181A606F
:10171000023AA3681A42FCD07301E02622688500D1
:1017200053401E4080230A4A5B019146E3181E6025
:1017300042462168514003220A401A600123424672
:101740009340A2681342FCD0C1E7C046008000402D
:10175000E41D0020014B8000C0587047E41D0020AC
:10176000F8B5040021481E0017000D0000F026FA0D
:101770000100380000F022FA069B36041B031E43CA
:101780002368002B20DB1A4B1A49E3185A1E934199
:101790008022920194465B421B0B174A1B03634451
:1017A0001360164A13601F000A689743FBD1144B5D
:1017B0002560E2182123A06013602368002BFCDA67
:1017C0000823E6601360F8BD3F2322681340AB4254
:1017D000D9D1A3681B051B0D8342D4D1EE22E36847
:1017E000D2021340B342CED1EDE7C046001BB70092
:1017F0000040FDBF08C0004000E0004000F0004095
:101800000430000010B580241C4BE4051C60002847
:101810001AD001231A4C18431A4BDC611A4C44406D
:101820001C62596298628021144BC90519601748DF
:1018300017490860E021C9041960002A07D18022F5
:10184000144B12061A6010BD0E4BD861EBE7530122
:101850009B1A9B009A18802312015B049A4209D2BA
:1018600013000D490B60074B5A608022094BD205CB
:101870001A60E8E7094B1A00F3E7C04600B00540DC
:10188000D3C007B0008005402D3FF84FFCFF01009A
:101890000820014000A0054044220020FFFFFF0077
:1018A0008023024A9B000B43D362704700800540AF
:1018B000142310B50100188804331B88984710BD05
:1018C000162310B50100188802331B88984710BDF5
:1018D000F8B54746CE4680B50F1E19D01423994659
:1018E000043304000025012698464B4618884346D9
:1018F00021681B88984701C4431E98410135404226
:101900000640AF42F1D13000C0BCB946B046F8BD88
:101910000126F8E7142370B50400188804331B88E7
:101920000D000549984703000020002C01DB013021
:10193000A04029009847C04655420000AA23064A05
:101940001B0113608D235B00D3600449044B1960B5
:101950005368002BFCDA70470040024000B0FA00E8
:10196000006002407047C04610B50148FEF778FF9E
:101970005483001070B5074D074EB54209D20024BC
:10198000013E761BB60808CD984723000134B342C8
:10199000F9D170BD5882001094820010054B064AA0
:1019A00006491A60064A074B1A6010000B689843F4
:1019B000FBD1704700E00040BFCDFBFE08C00040F7
:1019C000FE7F3C0000F00040044BDB6C002B03D199
:1019D0008022034BD2021A607047C04600001150AB
:1019E0004C201150044A054B1A60054A1368DB016C
:1019F0008033FBD17047C046FFFFFF0100F000407D
:101A000008C000404022034B9A675A671A67DA669B
:101A10007047C04600F0014010B5FEF7CDFF10BD85
:101A2000F8B52749274C284D641AA6103200302EED
:101A300000D930222800920000F0BEF9BC2C3BD81F
:101A400030202F232C196407204A801BE40F9B1B96
:101A5000052B16D93700002C02D0B300771CEA50B2
:101A6000001B33199B004108EB18C900C9181A6004
:101A70005A6008339942FAD1012303421CD098439B
:101A8000C619B300EA50731C2F2E15D09B00EA50E4
:101A9000B31C2E2E10D09B00EA50F31C2D2E0BD021
:101AA0009B00EA50331D2C2E06D09B00EA50731D7C
:101AB0002B2E01D09B00EA50054B9D60F8BDC0461F
:101AC00000010010C001001000000020C101001042
:101AD00000ED00E0002310B5294C82B0A367FFF7AA
:101AE0002DFF0122274B1A60636C012BFCD10322CE
:101AF000254B1A60224A936B012BFCD101330093D2
:101B00000121224A22480433FFF72AFE052301213E
:101B10000093204A2048FFF723FE002202210420E0
:101B20001E4BFFF7A3FD0022012105201C4BFFF7F0
:101B30009DFD0022002107201A4BFFF797FD002290
:101B400000210820174BFFF791FD8023DB00009355
:101B5000002200210920134BFFF70EFD0022104B3D
:101B600000210620FFF782FD0420FFF7F3FD0E4958
:101B700000F024F801000020FFF792FE02B010BD33
:101B8000008000403CB0004030B00040002F685959
:101B900000800240008C864700C00240001BB70056
:101BA00040597307006CDC0240420F0001480421D9
:101BB000014B184710100020D1180010114A936FE4
:101BC0009B0813D210665166002905D0FFE7FFE796
:101BD000FFE7516F106F704704B5002801D0002057
:101BE000C04306F0F9FA002104BDC046F0B5146EFA
:101BF000556E576F166FFFF7E5FF1466556657670A
:101C00001667F0BD000000D0132370B51D78012DBC
:101C100019D014DD1F48FFF753FE06001E48FFF7DA
:101C20004FFE1E4C80223100200000F0C5F8022D2E
:101C30002DD01B48FFF73CFE1A4B186070BD1A4BA5
:101C4000164CA364F5E7184B144C23606360A36043
:101C5000E36023616361A361E36123626362A36262
:101C6000E36223636363A363E36323646364A36442
:101C7000E36423656365A365E36523666366A36622
:101C8000E36623676367A367E367A364D1E7064B53
:101C9000A364CEE7534400005346000038120020EE
:101CA0004C33000074220020AD1C001007B56046C4
:101CB00001880A0A0230DF2AFAD1C9B2820804D3A5
:101CC000028840880004104300E00068014A505038
:101CD000039007BD3812002051434343C9188C4676
:101CE000110C83B24B4310B4040C614392B280B226
:101CF000504362431C041B0C001910BC59411304CF
:101D0000120CC0185141614470470000132310B5F4
:101D100012481C78FFF7D4FD0100012C0AD003DD26
:101D200080220F4800F048F80E48FFF7C1FD0E4B27
:101D3000186010BD0A4C5422200000F03DF80B4BF7
:101D40006365A365E36523666366A366E36623674D
:101D50006367A367E3672362E361E5E75346000037
:101D6000381300204C33000074220020711D001035
:101D700007B5604601880A0A0230DF2AFAD1C9B2E3
:101D8000820804D3028840880004104300E0006801
:101D9000014A5050039007BD381300200148042128
:101DA000014B184720100020D1180010014B1B6870
:101DB0001847000020100020014B5B681847000006
:101DC0002010002010B5002800D110BD00F024F92B
:101DD000FBE7C04610B5094A0300146884B0002C24
:101DE00008D0012200910648524203A9A0470120D1
:101DF00004B010BD00F05CF90020F9E7402200209B
:101E0000C51D001000BEFDE710B5FFF7FBFFC04683
:101E100070B5FFF7AFFD074D074EB54209D200245C
:101E2000013E761BB60808CD984723000134B34223
:101E3000F9D170BD94820010A4820010030010B587
:101E4000080011001B68984710BDC046F0B5C64693
:101E500000B5437D07000D001600002B38D0002A86
:101E60002EDD00216A1E90466A5C037D4C1C00201A
:101E70000A2A0CD0A64216D043461B5D21000D3B1A
:101E80005A4253416A5CDBB24C1C0A2AF2D1002B45
:101E9000F0D1884217DB022110483B689847A642E0
:101EA00007D02000E8E7864203DD311A3B68281896
:101EB0009847AD19013D2B780D3B5A4253413B7574
:101EC00080BCB846F0BD091A3B6828189847E2E77D
:101ED0000368110028009847F2E7C046A884001064
:101EE000F0B5DE4657464E464546E0B585B017008C
:101EF0001C0006000D00FFF735FB0023314A1218C5
:101F00004B41802109068B4202D301222E4B5242C3
:101F10002E4908008A4606F07FF901906B1C03D118
:101F2000300006F0B5F80500002C26D0284B984666
:101F3000284B1C68002C15D0002F21D1264F02E021
:101F40002469002C0ED02368002BF9D03B68002BAD
:101F500001D09C42F4D120002A003100C0472469FE
:101F6000002CF0D1019B002B28D1280005B0F0BC3B
:101F7000BB46B246A946A046F0BD184B9846D7E7E7
:101F8000154B994602ABDF1D0A239B4602E02469EC
:101F9000002CE7D02368002BF9D04B461B68002BA0
:101FA00001D0A342F3D12A0031002000C0475B4694
:101FB0000122390020003B70C047E8E7504606F098
:101FC000FBF8D2E740420F00FFFFFF7F68100020C0
:101FD0004D1E0010341E00203C1E00203D1E00102F
:101FE0000A4A1368002B05D10CE01A001B69103255
:101FF000002B07D09842F8D1002902D10369136061
:10200000016170470029FCD01060FAE7341E0020FF
:1020100010B500F08DFA10BDF0B5CE46474680B53C
:1020200083B06B460600DD1D2870FFF79BFA002386
:102030001A4A12184B41802109068B4202D3012211
:10204000174B524217490800884606F0E5F8164B30
:1020500081461C68002C14D0144F02E02469002C27
:102060000FD02368002BF9D03B68002B01D09C4295
:10207000F4D1200001222900FFF7E8FE2469002C9A
:10208000EFD14B46002B05D1300003B0C0BCB946A0
:10209000B046F0BD404606F08FF8F5E740420F002D
:1020A000FFFFFF7F68100020341E00203C1E002030
:1020B00070B5040005F0ECFF0123010005000122CA
:1020C0002000FFF70DFF084B1C68002C06D063684A
:1020D000002B05D098472469002CF8D1280070BD4A
:1020E0002469002CF3D1F9E7341E00207047C04664
:1020F0000022014B1A707047BD6200204B7900200E
:10210000FF2B0BD18B79002B08D1CB79012B05D17B
:10211000082A03D9024B8A7809301A707047C046E2
:10212000BD6200200120704710B5012901D00120B7
:1021300010BD13495379107909781B02034300201D
:102140009942F5D15378012B08D0022BF0D1002011
:1021500064220021FFF756FB0120E9E7D37891784C
:102160001B021943DB0507D54A0A100001231A4058
:102170007E331940FFF7CEFB01204A0A4042F5E7C3
:10218000BD620020004870477485001070B50500DE
:1021900014000120012909D153780020012B05D119
:1021A000637912791B021343072B00D070BD210005
:1021B0002800024A9F3301F05FFAF7E7CC84001051
:1021C0000123037000487047AC8400104B780A78F4
:1021D0001B0213438A7810B512041A43CB781B06EE
:1021E00013439622D200934200D010BD002201205A
:1021F00011004042FFF78EFB024B1860024B196042
:102200007047C046D41D0020D81D002010B5024BD9
:102210001878FEF70FFC10BDBE620020154B70B59C
:102220001A68002A22D0EFF3108172B610680028D5
:10223000FCD0BFF35F8F00200F4A596010701B68FD
:10224000BFF35F8F186081F31088002400250B4EC8
:102250003078FEF7E3FB002804D100240025290094
:10226000200070BD3078FEF7E5FBF8E7FA24002582
:10227000A400ECE74C220020BF620020BE620020D8
:1022800070B5040000200E0001F016FB002836D0C7
:10229000002001F027FB002831D0FFF763F900236D
:1022A000184A12184B41802109068B4216D2164D4E
:1022B000280005F0B1FF002821D0002001F0FCFA31
:1022C00000280FD101200021404200F009FD032425
:1022D0006442280005F070FF200070BD01220B4B06
:1022E0005242E4E7002001F0FDFA0028EAD0210084
:1022F0003200002001F000FB041EEAD1E7E70324CE
:102300006442E9E740420F007C220020FFFFFF7F8C
:1023100010B5FFF727F900230E4A12184B41802110
:1023200009068B4202D301220B4B52420B4C200078
:1023300005F072FF00280CD001200021404200F07F
:10234000CFFC002001F022FB0028F5D1200005F091
:1023500033FF10BD40420F00FFFFFF7F7C220020B3
:10236000F8B5DE46574680B505000C00FFF7FAF8D1
:102370000023374A12184B41802109068B4202D3B1
:102380000122344B5242344908008A4605F044FF8A
:10239000002803D1C0BCBB46B246F8BD002001F006
:1023A0008BFA00284AD00026002C43DD2B4B9B469D
:1023B00014E0A919002001F023FB070001200021EF
:1023C000404200F08DFC002001F0E0FAFFF7CAF86F
:1023D000224BF61918605960B4422BDD002001F041
:1023E0002FFBA71B0200B84200DD3A00002AE0D113
:1023F00001200021404200F073FC002001F0C6FAE9
:10240000002001F059FA002814D0002001F018FB38
:102410000028E1D1FFF7A6F85B460F001A685B6859
:10242000002184460E4812184B419F4202D8D3D156
:102430009445D1D9504605F0BFFEABE700200021FE
:10244000064B18605960504605F0B6FEA2E7C0463C
:1024500040420F00FFFFFF7F7C220020301200204F
:1024600020A1070030B52B4C85B00021200005F0DD
:10247000BBFE00281CD1284B1A68002A16D0EFF3A7
:10248000108172B610680028FCD0BFF35F8F012462
:102490002248596002781B68D2B20470BFF35F8F84
:1024A0000020186081F31088002A17D005B030BDD5
:1024B00001200021404200F013FC002001F012FA3C
:1024C0000500200005F078FE002DEFD0144B1B68AE
:1024D000002BEBD0134A10689847E7E7FEF7B2FEEF
:1024E0000400FFF73FF8FA220023920012184B4134
:1024F000802109068B4202D301220B4B524201215B
:10250000029100210191094920000091FEF79EFEF1
:10251000CCE7C0467C2200204C220020BF62002075
:10252000D41D0020D81D0020FFFFFF7F1D220010BA
:10253000D02310B51B0684B01C68FEF783FEFEF79F
:1025400081FFA04202D0002004B010BD2A4B002120
:1025500000201B7801F070FD28480368002B47D04D
:102560000120FEF7FFFBFF23254C26492070184071
:10257000FEF77AFA20780121FEF73EFA0520FEF7F1
:1025800061FA002826D1082200211F48FFF70EFC1F
:10259000FEF758FE0400FEF7E5FFFA220023920042
:1025A00012184B41802109068B4202D30122174B9E
:1025B0005242012102910021019115492000009110
:1025C000FEF744FE0028BEDB12480121FFF708FD9C
:1025D0000120B9E70120FEF7DDF90B4B01001800DF
:1025E000FEF722FC002205200B49FEF767FAEBE715
:1025F000FEF7FEFBB4E7C0467C8700107C2200207B
:10260000BE620020652400104C220020FFFFFF7FE7
:102610001D220010301000200D22001000487047CD
:102620001086001000487047BC85001010B50400EB
:1026300017480378002B20D0002C06D1154B1648E4
:102640004380063BFF3B038010BD052C19D8134B7C
:10265000A400E05812490123013804E001330A8044
:102660000231142B0FD0C25C002AF7D1C022DBB29A
:102670005B00920008481343E5E7112100F01AF8C7
:10268000DAE70020E0E7CA2303489B00DBE7C04607
:1026900084620020090400000C1E0020A4850010A4
:1026A0000E1E002010B5024800F0D8F810BDC0463C
:1026B0006C22002030B54B1E012900D1A7E0664AEC
:1026C00011780D092C0030349F2900D9A2E0047044
:1026D000012B00D1BEE00F21147821400C003034D2
:1026E000092900D998E04470022B00D1B2E0547857
:1026F0002509290030319F2C00D990E08170032BEF
:1027000000D1A7E00F2121400C003034092900D965
:1027100087E0C470042B00D19CE09478250929003F
:1027200030319F2C00D97FE00171052B00D191E061
:102730000F2121400C003034092900D976E0447182
:10274000062B00D186E0D4782509290030319F2C52
:1027500000D96EE08171072B00D17BE00F21214071
:102760000C003034092966D8C471082B00D171E0FF
:1027700014792509290030319F2C5FD80172092B6B
:1027800068D00F2121400C003034092958D84472F8
:102790000A2B5FD054792509290030319F2C52D85B
:1027A00081720B2B56D00F2121400C0030340929A7
:1027B0004BD8C4720C2B4DD09479250929003031A7
:1027C0009F2C00D9073101730D2B43D00F212140DD
:1027D0000C003034092901D937310C0044730E2B19
:1027E00038D0D1790C09220030329F2900D9073224
:1027F00082730F2B2ED00F220A4011003731092A85
:1028000001D830321100C173102B23D010300023B7
:10281000037030BD07345AE737310C0063E70731E6
:102820006CE737310C0074E707317DE737310C0076
:1028300085E707318EE737310C0095E707319DE7D3
:1028400037310C00A3E70731AAE737310C00C47217
:102850000C2BB1D1C018DAE76C22002010B588B07B
:1028600004000D2200216846FFF7A0FA0D22002186
:1028700004A8FFF79BFA4B236A466846137004A925
:102880000D2205F091FC1521082220006944FFF774
:1028900093FA08B010BDC046F8B500F043F90C2318
:1028A000194DFF22AB6705201849FEF707F9184CB0
:1028B000402200212000FFF779FA4027002301265B
:1028C0002121144A66702783A260136063545F312C
:1028D000618445396354104A10496360E260278778
:1028E000A1620B606362E26205F06EFC80239B05CF
:1028F0002E64EB6490230A4A0120EA508022094B9F
:102900005202DA64F8BDC04600001150E104002014
:10291000401E002084001050000110508000105014
:1029200010D001000020115010B501210520FEF744
:1029300063F810BD10B500220021024800F012F922
:1029400010BDC046601E0020044B1970002904D041
:1029500080219023024A8902D1507047B962002039
:10296000002011500B785B0602D14B78052B00D06C
:1029700070478A78014B1A60FAE7C0460000115090
:10298000F0B5C646C87800B58007830F1800012B44
:1029900060D08F780A794B797F213940FC091B027E
:1029A0004E001343334D32195201AA189770012774
:1029B0006740577000275B055B0DD7701383D07697
:1029C000B846CA00012C32D02B4FBC468F0162445E
:1029D000BC46AC446746BA6047461760002932D00F
:1029E000264AC90090466246414451603F223F3327
:1029F0009343022837D0224937190A687F01D31838
:102A00000B602049EF19FA608B422ED836197601F7
:102A1000AD19EB7E1C499B064A40134380221206E7
:102A200013436A681360012080BCB846F0BD174F9D
:102A3000BC468F016244BC46AC446746BA62474616
:102A40001760002908D1002364012C196360104B22
:102A5000E360E8E70020E7E70B4AC90090466246DA
:102A600041445162C2E75B00C5E7FEF77DFFFA68AB
:102A7000CCE7C046401E00208400105004001050D7
:102A800048220020FF0F105000001050800010500E
:102A90000001105010B505F097FB10BD10B57F2058
:102AA0000C0020404000E409110000191A00034BFB
:102AB0004001C01800F056F8012010BD401E002053
:102AC0007F23180010B50840CA090B4203D10749FB
:102AD0007D3B9B1A8B66400080188022044B40018E
:102AE0000021C018120105F0AFFB10BD00201150ED
:102AF000401E00207F22130010B50B400A4200D177
:102B000010BDC9095B005B1804485B01C0180023B5
:102B100000220349C37005F097FBF1E7401E002037
:102B2000FFF7FFFF80220A4B520410B51A60094BD1
:102B300009491A6010000B689843FBD180220021DC
:102B400052010648FFF732F90922054B5A6710BDBA
:102B500000E0004000F0004008C0004000001050BD
:102B600000001150002310B5C382013382828376A6
:102B70000161040005F048FB002804D08021902367
:102B8000074A8902D150200005F04EFB002802D0F0
:102B90000123237710BD200005F04EFBFAE7C04665
:102BA000002011507047C0467047C0460020704753
:102BB000002070477047C0467047C0467047C04607
:102BC0007047C046024B5878431E9841C0B27047C8
:102BD000EC180020024B18784007C00F7047C04621
:102BE000EC180020F0B5D6464F464646C0B5314BEE
:102BF00007009A461B780E00FF2B01D0012044E00D
:102C0000002941D0002154222B48FFF7CFF80022A1
:102C10002A4C2B4B20001A70FEF7EAF8294B1C6057
:102C2000294C2000143CFEF7F1F8200001F00CFEC6
:102C3000264B274D1C60274B002B2BD02800FFF77D
:102C4000BFFA254B2A781860244900248946224976
:102C50000023884610E043461B6862019B18002B46
:102C600012D05B68002B0FD098472A780134E4B269
:102C7000511C2300A1420FDBA242ECD89B1A5B013E
:102C80004B445B68002BEFD10020E0BCBA46B14654
:102C9000A846F0BD2A78D7E75346310038001F70A8
:102CA000FFF7FAFD0028EFD03800FFF73DFE0120C6
:102CB000EBE7C04664100020EC180020E418002068
:102CC000BA620020401900205C1000204419002046
:102CD000B8620020C12100103C170020CC860010F3
:102CE000F0B5DE4657464E464546E0B5C84B91B076
:102CF00002931B78FF2B00D13EE1C64BC64E9B468C
:102D00005F46C64B0DAC0193C54B009335686A69AD
:102D1000EFF3108172B61368002BFCD0BFF35F8F06
:102D2000A9612800210001F0BDFB6A69AB69BFF30E
:102D30005F8F0021116083F31088002800D11BE110
:102D40006378082BE2D89B00FB589F466368002BF2
:102D5000DCD0A0689847D9E77F222179AF4D0A409F
:102D60005300EB189846C809804440460123303090
:102D700005799D430571057903339D430571002A4B
:102D800000D100E14346A74A1B7D1278934200D34D
:102D9000EFE0A54A5B011568ED18002D00D1EBE0CE
:102DA000A36862792078AD69A847AFE79F4A137896
:102DB000002B00D1E0E01378013BDBB213701378F5
:102DC000002BA3D10122954D01212B780420134320
:102DD0002B703423EA5C8A43EA54EA5C8243EA5467
:102DE0000133EA5C8A43EA54EA5C8243EA5423787A
:102DF00000209B4600F0A0FC602223791A40602A44
:102E000000D1EFE0402A00D1F5E0DB06DB0E012B1C
:102E100000D113E1022B00D1C7E0002B00D0E1E08C
:102E2000202A00D11CE2002A00D0DBE06379092BC4
:102E300000D9D7E07E4A9B00D3589F46774D2B7828
:102E4000DB0700D462E7FFF7BBFE5FE7019BDB789F
:102E5000DB0700D45AE76068FFF7A6FE56E76F4D20
:102E60002B78DB0700D451E728780007C00FFFF765
:102E7000A5FE4BE723786A4999468B46694B6A4918
:102E800098468A4639001A7847460023B0460025FE
:102E90004E46894610E053461B686A019B18002B7A
:102EA00000D176E0DB68300098473A780135EDB222
:102EB000511C2B008D4244DC9542ECD39B1A5B01E4
:102EC0005B44EFE7237858499946564B8A46984623
:102ED0003100BB464E461A780025002347468946F6
:102EE0000FE053461B686A019B18002B55D0DB6826
:102EF000300098473A780135EDB2511C2B008D42D5
:102F000007DC9542EDD39B1A009A5B01944663441B
:102F1000EDE7019D542200212800FEF747FF102213
:102F2000FF214448FEF742FF28002022FF211430F1
:102F30004E465F46FEF73AFF00F0F4FBFFF73CFE1B
:102F4000E4E6364D542200212800FEF72FFF102220
:102F5000FF21281DFEF72AFF28002022FF21143020
:102F600046464F46FEF722FF00F0DCFB2379AB70AC
:102F7000CCE6501C984213DA11B0F0BCBB46B24606
:102F8000A946A046F0BDA3686279207800F0E8FB6E
:102F9000BCE646464F46214DE6E74E465F46CBE748
:102FA0001F4D9B1A5B015D19FAE67023217A0B42D3
:102FB00018D1C80982460F330B405B009846194868
:102FC000EB1853441B7D00789946834266D216481D
:102FD0005B01006881469944002A00D15FE14B46BD
:102FE000002B68D120780021FFF76AFD802120782E
:102FF000FFF766FD8AE6104800F09EFB0121584667
:103000000EAAFFF7C3F8002800D07FE6EAE7C04623
:10301000641000202486001044190020EC180020C1
:10302000CC860010B86200203C170020BA62002055
:1030300048860010F01800208D210010237A0F2BF5
:10304000D0D8CF4AEB181B791578AB423ED3691C18
:103050009942C7DB5D1BCB4B6D01ED18686900F031
:103060006BFB012158466B690EAA9847002800D0D7
:103070004CE66022150023791D401A42B2D16379D3
:103080000A3B012BAED800F057FB63790A2B00D125
:1030900099E158460EA900F0D9FA37E6431C4B4592
:1030A00000DAF7E04B461B1A5B019946B5488144AC
:1030B000002A00D1F3E04B46586900F03DFB4B4637
:1030C000012158465B690EAA98479CE7AE4A5B010E
:1030D0001568ED18002DC1D184E7A37999466B7866
:1030E0009945D6D06B78002B00D033E14B466B70FE
:1030F000002B00D12BE148460138C0B2FFF792FA0D
:10310000002800D17EE143780793022B00D079E1BB
:103110000122C179B1468B11491113400A40302177
:1031200012015B0113432A78A8468A4313432B708C
:1031300009239A4682445646BA46C37882781B02CF
:103140001343C31805938E4B04938E4B08938E4BF9
:1031500009938E4B0A93059BB34200D855E17378CF
:1031600001220B2B03D13378F278F6187378042BF5
:1031700000D044E1059B00279B1B9BB20693049B58
:103180000B921D78002303931BE0099A7B011568BD
:10319000ED18002D00D132E1310058462B69069A16
:1031A00098478446082803D9069A824200D313E13F
:1031B000049B01371D78FFB26B1C03979F4200DD13
:1031C0001DE1BD42E1D8039B5D1B089B6D019C4640
:1031D0006544E1E76B780CAA02321370584601236C
:1031E0000EA900F049FA91E5E3881A0AD8B20F2A2D
:1031F00000D9F7E666499300CB589F460EA800F029
:10320000A1FA5846A179FFF795FB02222B781343C8
:103210002B707BE5E388012B00D0E3E608222B78B6
:10322000584693430EA92B7000F010FA6EE5022069
:1032300029780CAB9A1C8B068908DB0F01400B43E5
:103240001380584602230EA900F016FA5EE5E388C3
:10325000012B00D0C6E608222B7813432B7018E709
:10326000237A0F2B00D9BDE6EB181D79444B1B7850
:103270009D4228D2444B6D011B685D19002D00D181
:10328000B0E6686900F058FA012158466B690EAA49
:103290009847B8E6002A00D0A4E600239946627950
:1032A0000220130003928343012B15D0002A00D083
:1032B00098E62B004344534430331B790CAA9B07F8
:1032C000DB0F0232BCE75A1CAA4200DA8AE6ED1A8A
:1032D0002C4B6D01ED18D4E7E388002B12D1029B33
:1032E0001878039B012B23D0FFF7EAFB434602210A
:1032F000EB18534430331A790A4301211A711A79B1
:103300000A431A714B46002B00D1FFE4586900F0C4
:1033100013FA4B4601215B690EAA584698470020D4
:1033200000F00AFA3523EB5CDB0700D5EEE4B0E6EB
:10333000FFF7E0FB43460221EB18534430331A7980
:103340008A431A711A7903998A431A71DAE7FFF7E7
:1033500033FC9EE600215846FFF7F6FA5846FFF781
:1033600099FBAB78074903930491054B06499846AE
:103370001A780591002329001D008A461BE0C046EB
:10338000B8620020CC8600103C17002000190020F5
:1033900070860010059B6A011B689B18002B4DD09E
:1033A000DB685846984743461A780135EDB2511C00
:1033B0002B008D422EDC9542ECD39B1A049A5B01C4
:1033C00094466344ECE70CAB9A1C584601230EA9C3
:1033D000157000F051F999E40B9A012A4FD0002A98
:1033E0003CD00023B07804E00133DBB20F7193428C
:1033F00034D2C118C9B241440D79FF2DF4D04E46E4
:103400004546574600236B70ECE54E465746FFF79E
:10341000D1FB3EE65546542200212800FEF7C6FCAB
:103420001022FF21281DFEF7C1FC28002022FF21C9
:103430001430FEF7BBFC039BAB7057E65546FAE72A
:10344000FEF7A0FE021E00D1CCE5D37891781B02D6
:103450000B4358460EA900F00FF9D4E565463B0032
:103460002A0031000A9800F08DFEAC46049B039AB6
:103470001B7866440133934200DB6CE6BFE7174BD1
:1034800029699942ADD1079AABE7FFF78FFB021E7E
:1034900000D1A7E5584613780EA900F0EDF8B2E583
:1034A0002189FFF7C3F8021EF4D19BE5022A0FD051
:1034B000FFF77EFB021EC8D194E5FFF7AFF8021EAE
:1034C00000D18FE5122358460EA900F0D5F89AE5F1
:1034D000FFF7A8F8021EB8D184E5C046453B0010AE
:1034E000F8B557464E46DE4645460C00E0B5160098
:1034F0001F00002A3CD01F4B00259A467023994696
:103500001D4B9B4617E05B462000997800F0FCFDC0
:1035100000281FD021004046FFF732FA002819D0BA
:10352000A378DA09012A1CD00A9A0135137023788E
:10353000E418B5421CDA6378052B0BD1E3789B07BE
:103540009B0FBB4206D153464A461B789846A37848
:103550001A42D8D00020F0BCBB46B246A946A046CD
:10356000F8BD0B9A013513702378E418B542E2DBFD
:103570000120F0E764100020EC180020702270B5E4
:10358000094B0C001D788B781A4201D0002070BDC9
:10359000064B2000997800F0B7FD0028F6D02100F6
:1035A0002800FFF7EDF9F2E764100020EC18002086
:1035B0000B007F2010B51840DB0934334000044A6B
:1035C000C018044B1168C01800F05AFD10BDC04669
:1035D00040190020EC1800200B007F2010B5184087
:1035E000DB0934334000044AC018044B1168C0188A
:1035F00000F06EFD10BDC04640190020EC18002000
:1036000070B57F240F480C4064000419CD0964197B
:1036100030342079C00701D5002070BD01262579FE
:103620000948354300782571FFF738FA0028F4D1AE
:103630000122237993432371237903329343237126
:10364000EAE7C046EC1800206410002070B5094C71
:103650000600082220000D00FEF7AEFB00238021AB
:10366000E360A3602B783000994300220023FFF72A
:10367000C7FF70BDCC180020F8B5CE46474690462F
:10368000264E80B58146082230000D001F00FEF74F
:1036900093FB4346B3600023F381EC79AB792402BA
:1036A0001C43231CBC4200D93B1C9FB2B381002C9D
:1036B0000ED0002F18D04346002B2CD03B1C402F9F
:1036C0001BD89FB233787F2B1CD80021144A0FE0FF
:1036D00080212B780022994348460023FFF790FF72
:1036E000C0BCB946B046F8BD7F230022317899436B
:1036F0003B004846FFF784FFF2E740239FB2337850
:103700007F2BE2D9064C3A0041462000FEF754FBDD
:1037100080212200ECE70020E2E7C046CC18002020
:103720008C18002010B5142200210248FEF73EFB41
:1037300010BDC046CC180020014B18617047C04630
:10374000CC18002010B5054C010008222000FEF71F
:1037500033FB0023A360E36010BDC046CC180020FB
:1037600070B5384C1D0023780600DA09C9098A4271
:1037700010D00020002D00D070BD21003000FFF7D8
:10378000F1F82369002B03D0220003213000984771
:103790000120F1E7A0687F2B05D8002834D02A004B
:1037A0002949FEF709FBE289A1685219E38892B220
:1037B0004919E281A160934214D03F2D12D9A38907
:1037C000981A051C80B240282AD82078ADB27F28EC
:1037D00028D800219A4232D01B4A2B003000FFF734
:1037E0000FFFC9E72369002B05D02200022130001A
:1037F000984700280AD0802123780022994330007E
:103800000023FFF7FDFEB7E70020B5E700213000F9
:10381000FFF756F930008021FFF752F90120ABE79E
:103820004025D2E79A4207D0074C2A002000FEF735
:10383000C3FA80212200D0E780210022CDE70022B8
:10384000CBE7C046CC1800208C18002070B50500CE
:10385000FFF7B8F9002800D170BDFFF7BBF90028C9
:10386000FAD1C8236B43124CE618F1780029F3D043
:1038700010331C19200000F0FFFD3F28ECD9002078
:10388000F178FFF795FE0028E6D0200000F0F4FD67
:103890003F2808D9074BEA01D218F17840230020CD
:1038A000FFF7AEFED8E7F1780020FFF795FED3E7EB
:1038B000C41700204017002010B50400FFF782F95C
:1038C000002801D1002010BDFFF784F90028F9D1AC
:1038D000C8226243024B01309B181B791840F2E763
:1038E000C4170020C82310B543430248181800F03D
:1038F000A5FD10BDD4170020F0B5C824C64680230E
:1039000044431F4F1034050000B53C195B029A4236
:1039100000D31C4A200092B200F012FE8046FFF74E
:1039200051F9002803D1404680BCB846F0BDFFF7EE
:1039300051F90028F7D1C8266E43BE19F378002B41
:10394000F1D0200000F098FD3F28ECD90020F1785C
:10395000FFF72EFE0028E6D0200000F08DFD3F2866
:1039600008D9094BEA01D218F17840230020FFF76B
:1039700047FED8E7F1780020FFF72EFED3E7C046D8
:10398000C4170020FFFF000040170020F8B5060014
:10399000FFF718F9002801D10020F8BDFFF71AF948
:1039A0000028F9D1C82474432500134F2435ED199C
:1039B000280000F043FD0028EED03F190020B97820
:1039C000FFF7F6FD0028E7D00C4BF401E4182100C6
:1039D0002800402200F0B4FDB978051E08D003008D
:1039E00022000020FFF70CFE0028D5D02800D4E7E5
:1039F0000020FFF7F1FDCFE7C4170020801700205B
:103A000070B5C82444430C4B0500E41880235B02C6
:103A10009A4200D3094A200092B200F059FE0600F3
:103A2000200000F00BFD3F2801D8300070BD2800B9
:103A3000FFF7ACFFF9E7C046E8170020FFFF0000E2
:103A4000C82310B543430248181800F015FD10BDF7
:103A5000E8170020F0B50025184C83B0C8220021DB
:103A60002000FEF7A3F9164B21001D70FF236371A0
:103A7000E1235B02A360200008234022A3733831B6
:103A80000095073B103000F0A3FC27000123210024
:103A900020002600402278310093B837243000F00F
:103AA00097FCC0363800FDF7A3F93000FDF7A0F908
:103AB000E56127622663656303B0F0BDC41700208B
:103AC000C01700200B4B196B00290AD01A6A002A74
:103AD0000DD000221A621A63DA6100225A630120B3
:103AE00070471A6A002AFAD0D9611962F7E71A6397
:103AF000F3E7C046C417002070B50F4C0522002123
:103B00002000FEF753F90D4D2B78DA0707D50C4C42
:103B10009B070CD50121200000F0B6FE70BD2000EF
:103B2000103000F091FE2B78054C9B07F2D420005A
:103B300000F08AFEEEE7C046C4170020C017002040
:103B4000E8170020F0B54B79060083B0022B02D1B4
:103B50008B79022B03D00025280003B0F0BD214F44
:103B6000BB78002BF7D18B7809253B700C780C19AA
:103B70006378242B0BD1082A02D80FE0AA420DD378
:103B80002378E4185D196378ADB2242BF6D0052BA9
:103B900008D0042B02D163790A2B11D00020FFF743
:103BA00055FED9E721003000FFF7E8FC0028D2D00D
:103BB000A3787B7023785D19E4186378ADB2E8E7E9
:103BC000094B27780193013300930222022330002E
:103BD000E119FFF785FC0028BDD00E35ED19ADB217
:103BE000DCE7C046C4170020C6170020F8B56023E4
:103BF00014001278050013400020202B07D1304A12
:103C00006379277916781B023B439E4200D0F8BDAA
:103C10006378222B1AD007D8202B34D0212BF6D151
:103C200001293ED00120F2E7232BF0D1012940D019
:103C30000329F7D1234B002BF4D0E178A3780902B4
:103C40000020194300E000BF0120E0E7012930D047
:103C50000329E7D101252E00A378E4780239240254
:103C60001C431471264024321000714000F00CFEF9
:103C7000154B002BD6D06208002031002A4000E00E
:103C800000BF0120C3E701290BD00329CAD10F4B84
:103C9000002BC7D0083200201100FEF797FA012050
:103CA000B5E7072321002800094AFFF7E5FC0120BA
:103CB000ADE721002800FFF7C9FC0120A7E7C046B7
:103CC000C41700200000000000000000CD210010FB
:103CD000CC170020F0B54F464646D646364DC0B507
:103CE000EA781F0080460C00AB788A423BD08B42BA
:103CF00010D00020E0BCBA46B146A846F0BD2F4B1C
:103D0000002B04D02E4800F0AFFB002851D000203B
:103D1000FFF79CFDAB78A34201D00120EAE7294BD5
:103D2000002B02D0002000E000BF0020FFF72EFE95
:103D30000028F2D1244C200000F080FB0028ECD1B8
:103D4000002FEAD0BF06E8D1243C4046A178FFF717
:103D50002FFC0028E1D0002300224046A178FFF785
:103D60004FFC0120C6E710239A46184EAA443100A2
:103D70005046BAB200F0ACFC154B002BBFD06B79AB
:103D8000FF2BBCD0002FBAD0F219914603E00136C8
:103D9000B145B4D06B7932789A42F8D1504600F0F0
:103DA00063FB0028F3D15346103B597900E000BF74
:103DB000EDE700E000BFAAE7C41700200000000004
:103DC000D417002000000000E81700204017002052
:103DD000000000009322F0B5134C85B000212000B4
:103DE0009200FDF7E3FF23002000802640270F4DBF
:103DF0004D337600FF3329300295009300220023D3
:103E0000002103970196FF3000F0D6F94035201DC0
:103E10002834002301220021039702950196009483
:103E200000F0CAF905B0F0BD881A0020081A002079
:103E300010B5054C200000F0F5F920002538FF38BA
:103E400000F0F0F9012010BDB01B002070B5084C47
:103E5000002520003130FF30257000F0F5FC2000F7
:103E60000C3000F0F1FC2A23FF33E554657170BD7E
:103E7000881A0020F8B557464546DE464E46E0B55E
:103E80004B7980460F00FF2B27D1424B0C78994687
:103E90002A234946FF33CB5C002B1ED14E79002EDE
:103EA0001BD1BB783C190B703B79002B12D09823A7
:103EB0005B004B449A460C234B449B46A518637801
:103EC000052B05D110E02378E4186378052B0BD07F
:103ED000A542F8D8E01B80B200E00020F0BCBB4651
:103EE000B246A946A046F8BDA542F3D921004046F6
:103EF000FFF744FB0028F0D0A3780136F6B2DB09C7
:103F0000012B29D0504600F09FFC2A234946A27875
:103F1000FF33CA54637922791B0213431E4A5B059F
:103F200094465B0D942163445A4253414A46022011
:103F30004900525C5B00824313434A465354514646
:103F40004046083900F0D6F90028C6D02378E41896
:103F50003B79B342B3D8BDE7584600F075FC5A46EA
:103F6000A3780C3A5371637921791B020B430A49F8
:103F70005B058C465B0D634459424B41022011792D
:103F80005B0081430B43594600200839137100F050
:103F90007FF9DBE7881A002000FEFFFF70B50500FF
:103FA0002A201F4CFF30205C1E006379884203D01A
:103FB00000208B421DD070BD9A235B00E35A002B7A
:103FC0000DD1184B002B04D000201749B2B200E0ED
:103FD00000BF2800154900F08DF90120EBE7200013
:103FE000962331305B00E158B2B2FF3000F070FB35
:103FF000E7E70F4B002B04D031040020090C00E050
:1040000000BF0C4C2800210000F042F90028E4D148
:1040100032002100280000F007F90120CBE7C0465C
:10402000881A002000000000081A0020B01B0020A1
:10403000000000008C1A002000B5030083B00029A6
:1040400010D00020012B07D80A78002A04D00B4892
:10405000C2540120012A01D003B000BD1800FEF7B0
:10406000C1FDF9E7012301A900200B80FEF7BAFD8D
:104070000028F1D00122014B1A70EDE7E018002072
:10408000037870B5DB0704000E00DD0F002B17D19D
:1040900003785B0701D5280070BD0121300049423B
:1040A00004F0AAF82378DB07DD0F002B0AD1237870
:1040B0005B0708D40422237801251343237002E010
:1040C0000025E8E70025300004F076F8E3E7C04675
:1040D00070B50C00012106004942200004F08CF864
:1040E00033785B07DD0F002B04DB200004F064F85D
:1040F000280070BD3378DB0704D40422337893435F
:104100003370F2E70025F0E7437902791B0213438D
:10411000C2785B0592075B0D920F022A1DD0032A1D
:104120000CD00020012A08D102394A425141124ADA
:104130009446614499424041C0B2704702394A1ED8
:1041400091410E4A494211408022D20094460020FB
:10415000614499424041C0B2EFE7022905D00020F6
:1041600040229A424041C0B2E7E7054A98184342CC
:104170005841C0B2E1E7C046FF03000040FCFFFF2A
:1041800000FEFFFF8A1870B5914207D27F264C7857
:10419000052C04D00C7809198A42F8D870BD340077
:1041A0008D782C4064000419ED0963550C780919C9
:1041B0008A42ECD8F2E7C046F0B5C64600B582B0F8
:1041C000150008AA40CA040017880BAA128801200B
:1041D00090460A002178024081432000114321705B
:1041E0003A00009331000123083000F0F1F8002E6E
:1041F00001D0002F08D10A9B0120636043466380F1
:1042000002B080BCB846F0BD26001C363000FCF77A
:10421000EFFD0023002D01D0330000266361A6616D
:10422000E9E7C04601207047F8B502240B78070083
:104230001C4063425C41144B64421C40134B080019
:104240009C4608300D001600644400F0F7F8002882
:1042500007D1002E05D0344203D101242B781C4213
:1042600001D00020F8BD38006978FFF7A1F90028D7
:10427000F7D02B781C42F4D1002300223800697853
:10428000FFF7BEF9EEE7C04640FEFFFFFF0100006A
:10429000F8B50D000835060028000C0000F0CEF837
:1042A000002803D0012723781F4201D00020F8BD49
:1042B00030006178FFF77CF90028F7D02800628889
:1042C000616800F03DF92378051E0BD01F42EDD147
:1042D0000300626830006178FFF792F90028E5D0AA
:1042E0002800E4E71F42E1D130006178FFF774F95C
:1042F000DCE7C046F8B5CE46474680B58A8905005A
:104300000C000B78002A07D101261E423FD0002066
:10431000C0BCB946B046F8BD9B0734D5FE23802605
:104320001B029946B60027000837380000F0A4F8B1
:104330008642ECD80122237890461A42E7D1280021
:104340006178FFF735F90028E1D0380000F094F8E3
:10435000864231D84146237862881942D7D14B46EC
:104360001840061C904200D9161CB6B20022617893
:10437000002E00D0626833002800FFF741F90028C2
:10438000C5D03000C4E7114B40269946CBE74978A9
:10439000FFF70EF90028BAD0227863881642B6D10A
:1043A00000226178002B00D062682800FFF728F90E
:1043B0000028ACD06088ABE7424623781A42A6D1E9
:1043C00028006178FFF708F9A1E7C046C0FF0000A8
:1043D000F0B5C64600B5040006A8057880208846DA
:1043E00017001E000002824226D8E068002803D091
:1043F0000121494203F000FF2069002803D0012178
:10440000494203F0F9FE4346236073045B0CED035D
:104410001D430023E0686381A780E5802381002895
:1044200001D003F0C9FE2069002801D003F0C4FECA
:10443000012080BCB846F0BD0020FAE710B5048921
:1044400041898288A3B288B28C4207D31B1A9BB2DF
:10445000101C9A4200D9181C80B210BD5100091AD4
:104460005B189BB2F4E7C04603894089181A43429F
:104470005841C0B27047C04610B50489418982884E
:10448000A3B288B28C4207D31B1A9BB200209A4277
:1044900001D9D21A90B210BD5100091A5B189BB213
:1044A000F4E7C04670B5040000690E00002803D090
:1044B0000121494203F0A0FE25896089A288A9B2A2
:1044C00083B285422CD3CD1AADB2002D2ED0AA4294
:1044D00008D2914230D3891A8BB263819A4203D8B1
:1044E0009B1A9BB29A42FBD9E28821685204520C73
:1044F00053433000C918FDF75FFC63890125591C3F
:1045000089B2A2888B4213D900215200891A89B23C
:1045100020696181002801D003F04EFE280070BDA3
:104520005500ED1A4D19ADB2002DD0D1618989B277
:1045300052009142ECDBE9E789188BB26381CDE749
:10454000F0B546464F46D646C0B5060000698946D6
:104550009046002803D00121494203F04DFE3189E5
:104560007289B5888BB294B2914254D31F1BBFB2EB
:10457000002F4AD0BD4205D2AB4251D25B199CB24A
:104580002F0074814346B8453DD89FB2A54203D859
:10459000641BA4B2A542FBD9F28831685204520CC4
:1045A000904662432B1B9BB2891842469F4225D9F5
:1045B00053439BB21A0048469A46FDF7FDFB43461B
:1045C00048467D1B64195C4331685044A2B2FDF734
:1045D000F3FB7189B588CB199BB26A00994216D951
:1045E0009B1A9BB230697381002801D003F0E4FD6F
:1045F0003800E0BCBA46B146A846F0BD48467A430A
:10460000FDF7DAFBE5E73B1CBFE773899BB26A0065
:104610009342E7DBE4E76F003F1BDF19BFB2A7E778
:104620005B1B9CB2ACE7C046F8B50400C0680E0046
:10463000002803D00121494203F0DEFD25892089AD
:104640006189A288ADB283B28FB2884229D3DB1BC5
:104650009BB29A4209D8E779FF0906D1E0680028A1
:1046600001D003F0A9FD3800F8BD95421ED32B0000
:104670009B1A9BB29342FBD2E28820685204520CF0
:1046800053433100C018FDF797FB6B1C9BB2A28807
:104690009D4218D9002352009B1A9BB20127238107
:1046A000DCE75100C91B5B189BB2D2E72B00E28804
:1046B00020685204520C53433100C018FDF77CFBB4
:1046C0000135A288ABB252009342E7DBE4E7C04673
:1046D000F0B557464546DE464E46E0B514000500A7
:1046E0000F0083B0002A75D0C068002803D00121D4
:1046F000494203F081FD2E89E9796A89AB88B6B217
:1047000092B2C90945D1964200D36DE059008A1A88
:10471000B21892B2002189469A4234D29A1A111CD8
:1047200092B2A24200D9211C8AB29146EA88520470
:10473000520C90464A46B21892B292464A46D21A53
:1047400092B2934634009E4203D3E41AA4B29C4230
:10475000FBD24246624328681B1B9BB2801842462C
:104760004B4554D34B4639005A43FDF725FBAB88E4
:104770005B00564501D89A4503DB5246D31A9BB2DB
:104780009A4653462B81E868002825D003F014FD93
:1047900022E0E9884904490C88469C4227D2964287
:1047A00047D3B11A89B28C465800E11A89B28B46B8
:1047B00061460919814208DBD11889B20E1BB6B2D5
:1047C0008A46B2423BD9361AB6B2A21992B2924682
:1047D000A146B7E700239946484603B0F0BCBB4664
:1047E000B246A946A046F0BDB21A92B292E70021A5
:1047F0008946002BC7D04146E41A4C431600D11815
:10480000002289B28A46994693463F199AE7534354
:104810009BB21A0039005C440193FDF7CDFA414682
:1048200022004A43019B286892B2F918FDF7C4FAA6
:104830009DE75800811A711889B28C46B5E7A146E8
:10484000B04200DD7EE7BEE710B50400C068002876
:1048500003D00121494203F0CFFC2069002803D096
:104860000121494203F0C8FC0023E06863812381F1
:10487000002801D003F0A0FC2069002801D003F03B
:104880009BFC012010BDC04670B50400C0680D003F
:10489000002803D00121494203F0AEFC2069002822
:1048A00003D00121494203F0A7FC7F21E379ED0108
:1048B0001940E0682943E171002801D003F07CFC35
:1048C0002069002801D003F077FC012070BDC046AC
:1048D000024B80009B68C0587047C04600ED00E066
:1048E000F8B50E00EFF3108772B60C4B84009B688E
:1048F0001D59A94204D00A4B9D420AD2FDF734F853
:10490000064B9B681E51BFF35F8F87F3108828000A
:10491000F8BD044B9D42F3D3F0E7C04600ED00E044
:10492000C0010010D40100100B4B70B504000D0045
:1049300099420ED3094B99420BD2EFF3108372B612
:10494000074AA4009268A550BFF35F8F83F31088D5
:1049500070BDFDF709F8F0E7C0010010D4010010A8
:1049600000ED00E00300083B10B5072B11D803232E
:104970000400094A18409446C0009C43FC3383401D
:104980006444226881409A43130001200B43236052
:1049900010BD0020FCE7C04614ED00E00300083B1A
:1049A000072B0CD80749032302008C469A43624424
:1049B00003401268DB00DA40FF2010407047FF2000
:1049C000FCE7C04614ED00E010B51820FBF7E8FC4A
:1049D000041E03D0002308C000F024FA200010BDFC
:1049E000F0B557464E464546DE46E0B51E008023EC
:1049F00005000F00140085B05B049A4201D372B623
:104A0000FEE7002A01D172B6FEE701F0C5FB0028DF
:104A100003D1002E01D072B6FEE701F011F82B6829
:104A2000029380235B049A469F4201D372B6FEE74D
:104A30000C239B4601F004F829682B693943AB44E9
:104A4000984629609B4530D00023009380232200A4
:104A5000DB044446019599465D469046B34603976C
:104A600010E0002F0CD05646324202D0009A1A4372
:104A7000009280239B04194301F0A4FA019B19685A
:104A8000A5420CD0200002684E4613021B0A1F00EC
:104A900064680F403242E4D0BB42F1D1E3E74446C0
:104AA0005E46009B019D039F9943296000F0D0FF63
:104AB000029B3B431F0023003B40A3421FD0002E1C
:104AC0000AD12F6800F0C4FF380005B0F0BCBB4627
:104AD000B246A946A046F0BDA021C9043200214338
:104AE000281D01F039F900F0B3FF00281AD001F0B9
:104AF00031FC0600830108D53602370AE4E72B684B
:104B0000A3432B6000F0A4FFDEE7FBF7EDFD2E686A
:104B100033002340A34202D13300A3432B60FBF7B1
:104B2000EFFDE9E7FBF7D4FDE1E7C046F0B5C64687
:104B300007000C0016001D0000B5002809D08023D6
:104B40005B04994203D2002905D172B6FEE772B622
:104B5000FEE772B6FEE701F01FFB002817D1069BA7
:104B6000002B12D100F06CFF3B689846002D31D12C
:104B7000234232D0002E30D04346A3433B6000F0A6
:104B800067FF404680BCB846F0BD72B6FEE700F055
:104B900057FF3B689846002D22D12342EAD1069B5D
:104BA000002B1AD031004B1E99410906069A214369
:104BB000381D01F0D1F800F04BFF00282ED001F095
:104BC000C9FB030080469B0118D543461802030A1F
:104BD0009846D6E723409C42CCD000F039FFD0E77E
:104BE00023409C42C6D0069B002BF6D03300802188
:104BF0005A1E9341C9041B061943D7E7FBF774FDFE
:104C00003B689846002D0CD1234204D0002E02D0E0
:104C10004346A3433B60FBF773FDD6E7FBF758FD24
:104C2000CDE723409C42F6D1F0E7C04670B50400C2
:104C30000D0000280FD080235B04994201D372B687
:104C4000FEE7FBF751FD26683300AB432360FBF71B
:104C500057FD300070BD72B6FEE7C04610B50400C7
:104C6000FBF75CFD2468FBF75DFD200010BDC0462E
:104C7000F0B54E46DE4657464546E0B50C00060008
:104C800083B0002846D080235B049846994201D324
:104C900072B6FEE707000C37019700F0D1FE3368CB
:104CA00035691C433460AF4229D000239A468023E3
:104CB000DB04994680239B049B460FE000290AD021
:104CC00041460A4202D052461A439246594621436F
:104CD00001F078F93468019BAB420ED02800210026
:104CE0004F4602686D6813021B0A19403A42E5D02C
:104CF0008B42E5D0019BAB42F0D153469C433460DC
:104D000000F0A6FE200003B0F0BCBB46B246A946A8
:104D1000A046F0BD72B6FEE770B5041E13D000F0D9
:104D20008FFE6368002B10D025000C3506E0802133
:104D3000890401F047F96368002B06D02069A84276
:104D4000F5D172B6FEE772B6FEE700F081FE2000F4
:104D5000FBF7E8FB70BDC046F8B54E46DE46574649
:104D600045460C00E0B5061E43D080235B04984600
:104D7000994201D372B6FEE7070000F061FE316888
:104D8000356921430C373160AF4229D00023994661
:104D90008023DB049B4680239B049A460FE06446F5
:104DA000002C0AD04446224202D04A461A43914679
:104DB0005346194301F006F93168AF420ED028007E
:104DC0000C0002686D6813021B0A1C40A4465C4676
:104DD0002242E4D06345E5D0AF42F0D14B4699433F
:104DE000316000F035FEF0BCBB46B246A946A04695
:104DF000F8BD72B6FEE7C04670B504000D0000288D
:104E00000DD080235B04994201D372B6FEE7FBF715
:104E10006BFC2368AB432360FBF772FC70BD72B67A
:104E2000FEE7C0460300083301224360C36003610C
:104E300000235242826003607047C0460023036132
:104E40007047C04643689A684B608A6051609960B9
:104E500003680861013303607047C046030030B542
:104E60000D6808336A1C0DD01C005B681A68AA42E2
:104E7000FAD94B60996003688C6001336160086106
:104E8000036030BD04696368F3E7C04603694168A5
:104E900082688A6051605968814205D000220261AF
:104EA00018680138186070475A60F7E7F8B50400D1
:104EB000FBF71AFC314D2B6801332B606B68002B1C
:104EC0002ED02F4EE26AF36E002B23D0336F0133C6
:104ED0003367736F934200D2726793009B189B00F5
:104EE000EA18D168201D8F68A160E760786088604B
:104EF00029000831CB186361936801339360FBF795
:104F0000FFFBF36E002B04D06B68DA6AE36A9A4207
:104F10000DD3F8BD6B68DB6A9342D7D86C60D5E7D8
:104F20006C602B68012B05D0E26A154ECEE7FBF7CB
:104F3000CFFBEEE72E002F00083680373000143606
:104F4000FFF770FFBE42F9D10D4E37003000143725
:104F5000FFF768FF3800FFF765FF30002830FFF7E4
:104F600061FF30003C30FFF75DFF30005030FFF74D
:104F700059FF7666E26AB766A8E7C0465414002077
:104F8000D4140020F0B54F464646D6460400264DC0
:104F9000C0B5AB6F254E98466B6E0F009946AB6E51
:104FA00070689A460430FFF771FF631C18D073686D
:104FB00044445C60A04509D9716850460431FFF74C
:104FC0004DFFE0BCBA46B146A846F0BD7168484600
:104FD0000431FFF743FFEB6FA342F2D9EC67F0E730
:104FE000002F0CD143467268013B53609845E3D8CB
:104FF000716848460431FFF731FFEB6FE1E76B6DF5
:105000007268996893607268D160726804324A600D
:10501000726804329A602A00736850325A612B6DAC
:1050200001332B65CDE7C046D41400205414002072
:10503000F8B5114D114F124E14E0FBF755FBBB6C48
:10504000DC68201DFFF722FF3368013B33602B68CB
:10505000013B2B60FBF754FB206BFBF763FA20004E
:10506000FBF760FA2B68002BE7D1B368012BF9D965
:10507000FBF72EFBF6E7C04654150020D4140020A1
:1050800054140020F0B54546DE4657464E46544976
:10509000E0B58B6F83B0013398468B67002B59D0F6
:1050A000504BCA6F90455BD34A6E1268002A00D1FC
:1050B00091E0002292469146083293464A48019375
:1050C0008446834435E048465861106801381060D2
:1050D0009A6A002A0DD0D8691C6A5568846060609D
:1050E00018001830854265D048469862106801382B
:1050F0001060DC6A4A6F944200D94C676046A20097
:10510000121992008518EE685A44B0689E60D86003
:105110004760B7605A61AB680133AB6063465B6858
:10512000DB6A9C4201D901239A464B6E1B68002B17
:105130004BD04B6EDB68DB685A68904541D35A69A7
:105140009C68D8681F1DA06044605468BC42BAD1F6
:105150005060B8E74B6E1B68002B1CD072B6FEE7A0
:105160000022924620484268D16A8A005218920072
:1051700080188268012A01D9012292469B68002B7F
:1051800001D001239A46504603B0F0BCBB46B2465C
:10519000A946A046F0BD4B6E8A6E4A668B66114BDF
:1051A0005A6801325A604A6E1268002A04D1013AE4
:1051B000CA6776E7546097E74A6ED2681268CA6792
:1051C0006FE76046019BCA67CDE76046019B0122FD
:1051D0005242CA67C7E7002203489246F7E7C04633
:1051E000D41400205415002054140020F0B5DE46DD
:1051F00057464E4645464C4CE0B5E36883B0013B0C
:10520000E360E368002B71D1484A13680092002BD9
:105210006CD04748836A002B4ED000239A4608334F
:1052200099469446073BE1449C46436BDB68DE6944
:10523000196A9A6AB1604E601E0057681836B74204
:1052400065D0514699621168013911609E68D9682C
:105250005A69B1604E601E1DB0465668464554D02E
:10526000116801391160D96A426F914200D94167D2
:105270008A0052189200934601924246009E5E4474
:10528000F768BD689F60DD606A60BA60019A4A4451
:105290005A61B3680133B360009E7368DB6A994258
:1052A0002FD96346A360836A002BBED1436E1B686F
:1052B000002B2ED1013BC3672669002E13D0012796
:1052C00007E0FFF7DFFE002800D0A760013E002EB8
:1052D00008D0E368002BF4D02369013E0133236139
:1052E000002EF6D12661A368002B17D10024FBF70E
:1052F00007FA200003B0F0BCBB46B246A946A04660
:10530000F0BD836A002B90D1D0E75160A8E75160CF
:1053100097E7436EDB681B68C367CDE7009B0124FA
:105320005B68FBF7D5F9E2E7541500205414002020
:10533000D4140020F8B5CE46474680B59700804685
:1053400038000D009946FBF72BF8061E00D18AE0C5
:105350006820FBF725F8041E00D181E068220021B7
:10536000FCF724FD300026633A00A521FCF71EFD62
:10537000266B002D4BD034222B78A354002B43D026
:105380006B780132A354002B3ED0AB780132A3548A
:10539000002B39D0EB780132A354002B34D02B7979
:1053A0000132A354002B2FD06B790132A354002B70
:1053B0002AD0AB790132A354002B25D0EB790132EE
:1053C000A354002B20D02B7A0132A354002B1BD0E6
:1053D0006B7A0132A354002B16D0AB7A0132A3545E
:1053E000002B11D0EB7A0132A354002B0CD02B7B75
:1053F0000132A354002B07D06B7B0132A354002B46
:1054000002D04223AA7BE25443230022E254089BA9
:10541000052B01D972B6FEE7E3626364201DFFF736
:105420000DFD20001830FFF709FD0623089A043F00
:105430009B1AA3610723F01998434A464146246109
:105440006462FBF733F9099B2060002B00D01C60DD
:105450002000FFF72BFD0120C0BCB946B046F8BDC7
:105460003000FBF75FF801204042F5E7F8B5040093
:10547000FBF73AF9274E002C2FD0271D3800FFF7F5
:1054800005FDA36A002B03D020001830FFF7FEFCB7
:10549000214D2B6F01332B677368A34222D0EB6E33
:1054A0003368013B33606B6E1B68002B12D06B6E50
:1054B000DB681B68EB67FBF723F9206BFBF732F81F
:1054C0002000FBF72FF8EB6E002B02D07368A3428D
:1054D00017D0F8BD013BEB67EDE77468002CCCD129
:1054E00072B6FEE7EB6E002BDAD0280039003C30B4
:1054F000FFF7A8FC094A136801331360FBF700F9B2
:10550000E1E7064BDB68002B01D072B6FEE7FBF744
:10551000DFF8DEE754140020D414002054150020D6
:10552000F8B5DE4657464E464546E0B500280ED053
:1055300000290AD0294DEB680133EB60284EB26F89
:10554000EB68012B05D072B6FEE772B6FEE772B6C5
:10555000FEE703685C18934227D9A3422CD9A242E4
:105560002AD2B36F1F4F9A469B1A9B46736E0460F4
:105570009846B36E786899460430FFF787FC7B68DD
:1055800079685C445C600431A24511D84046FFF75D
:1055900065FCF36F9C4200D2F4670124FBF7A4F88A
:1055A000EB68002B0BD172B6FEE7A342D9D8D6E741
:1055B0004846FFF753FCF0E704600024EEE7FFF7EE
:1055C00015FE002806D02000F0BCBB46B246A94616
:1055D000A046F8BDFBF77CF8F5E7C046541500205F
:1055E000D414002054140020F0B5D6464F46464649
:1055F0000400C0B500280CD01C4EF3680133F360E2
:10560000F368012B0CD072B6FEE7FFF7EFFD002820
:1056100001D1FBF75DF8E0BCBA46B146A846F0BD43
:10562000134D144FAB6F9A466B6E54449846AB6E55
:10563000786899460430FFF729FC7B6879685C60DC
:105640000431A24509D94846FFF708FCFBF74CF89E
:10565000F368002BD9D172B6FEE74046FFF7FEFB98
:10566000EB6F9C42F2D2EC67F0E7C0465415002085
:10567000D41400205414002010B50400FBF734F8B3
:10568000002C04D0E46AFBF73BF8200010BD034B6C
:105690005C68002CF6D172B6FEE7C04654140020B8
:1056A00010B50400FBF73AF8002C04D0E46AFBF7CD
:1056B00039F8200010BD034B5C68002CF6D172B69F
:1056C000FEE7C0465414002010B50400FBF70CF8A8
:1056D000002C04D0646CFBF713F8200010BD034BC2
:1056E0005C68002CF6D172B6FEE7C0465414002068
:1056F00010B50400FBF712F8002C04D0646CFBF723
:1057000011F8200010BD034B5C68002CF6D172B676
:10571000FEE7C04654140020F8B504000D0005292A
:1057200001D972B6FEE7FAF7DFFF002C2FD0636CC9
:105730009D4222D0274F25D97A68A24248D07A6864
:10574000D66AAE42B6417642E26A934218D095429A
:1057500016D8A3696564002B02DB06235B1BA361DB
:10576000390093009B1808319B006269CB189A425C
:1057700013D0002E01D0FAF7ABFFFAF7C1FFF8BD46
:10578000E562E6E77E68361B72425641DCE7114B64
:105790005C68002CCBD172B6FEE7251D2800FFF710
:1057A00075FB0D4BE26A596F8A4200D95A67930024
:1057B0009B189B00FA18D1680837FF18936888680F
:1057C0000133A160E06045608D6067619360D0E760
:1057D0000026B9E754140020D4140020F8B5041EA4
:1057E0000ED01E4D6B68834209D0FAF77DFF1C4E28
:1057F0006269330050339A4204D0FAF781FFF8BD52
:1058000072B6FEE73200A36A28329342F5D0002B2D
:10581000F3D16433E35C012BEFD0271D3800FFF791
:1058200035FBE26A736F9A4200D9726793009B1846
:105830009B00E918C8688668A060E66077608760AA
:1058400028000830C31863618B6801338B606B6874
:10585000DB6A9A42D1D9FAF73BFFCEE75414002015
:10586000D4140020F8B5CE464746040080B5002881
:1058700012D0FAF753FF274D62692B005033060010
:105880009A420BD0002398463000FAF74BFF40466F
:10589000C0BCB946B046F8BD72B6FEE72800A36AA0
:1058A00028308342EED0002BECD16433E35C012B33
:1058B000E8D0194BDA68002A27D10020174FE16A97
:1058C0007A688046D26A914203D901229A60012304
:1058D0009846231D18009946FFF7D8FAE26A6B6FC5
:1058E0009A4200D96A674D4693009B189B00FA18AC
:1058F000D1680837FF18936888680133A160E060B9
:1059000045608D6067619360BEE721001831FFF745
:1059100099FAB7E7D414002054150020541400203D
:10592000802070B58000FAF73BFD051E3FD068204F
:10593000FAF736FD041E37D068220021FCF736FA4C
:105940008022A521920028002563FCF72FFA072367
:10595000256B0026FD35FF359D431B4B201D6363E2
:105960003823E6540B33E654E6626664FFF766FAC2
:1059700020001830FFF762FA062300221349A361C2
:10598000280024616462FAF791FE114B2060200028
:105990005C61FFF78BFA01F04DF9012809D0013065
:1059A00005D00C4B1B6870BD2800FAF7BBFD72B622
:1059B000FEE772B60122084B5242DA67D8669E674C
:1059C000FAF7E0FEEDE7C04649444C45315000107F
:1059D0005415002034870010D4140020F8B501F0CD
:1059E00003FAFFF743FD134D6869FFF73FFD2B688E
:1059F000114F002B18D0114EFAF776FEBB6CDC6805
:105A0000201DFFF743FA3368013B33602B68013BED
:105A10002B60FAF775FE206BFAF784FD2000FAF789
:105A200081FD2B68002BE7D172B60023FB66FAF7E5
:105A30004DFEF8BD54150020D4140020541400204D
:105A4000024AD3680133D3607047C0465415002022
:105A500010B5FAF749FE044BDB68002B01D172B692
:105A6000FEE7FFF7C3FB10BD54150020014B986FF4
:105A70007047C046D4140020014B986F7047C04651
:105A8000D4140020014B18687047C04654140020FD
:105A9000002801D034307047024B58680028F9D1F3
:105AA00072B6FEE75414002070B50D4C0500E36893
:105AB000002B01D072B6FEE7E3680133E360FAF72A
:105AC00013FE23695B192361FAF71AFEFAF70CFE3D
:105AD000E368002B01D172B6FEE7FFF787FB70BDCC
